:100000000C942A000C94A0020C94D3020C940603C6
:100010000C94F9010C94D0010C94A7010C947E016E
:100020000C9455010C942C010C9403010C94DA00EF
:100030000C943C000C943C000C943C000C943C0050
:100040000C943C000C943C000C943C000C943C0040
:100050000C943C0011241FBECFE5D8E0DEBFCDBF1D
:1000600010E0A0E6B0E001C01D92AB37B107E1F7A8
:100070000E94C8040C9432060C94000083B78F7B56
:1000800083BF83B7877F83BF12BE89B7816089BF73
:1000900083B7887F83BF83B7846083BF089582BF9F
:1000A00008958CBF08950895089582B708958FB577
:1000B0008E7F8FBD8FB582608FBD8EB588608EBDFF
:1000C0008EB580618EBD84EF8ABD8BB581608BBD9E
:1000D00018BC89B589BD80E286BD8EE487BD8EB52A
:1000E00080648EBD8FB58F7B8FBD8FB580688FBDCF
:1000F0008FB58F7E8FBD8FB580628FBD89B78B7FA7
:1001000089BF89B78F7E89BF89B7877F89BF89B744
:100110008F7D89BF8EB5887F8EBD8EB582608EBD86
:1001200008958CBD8DB5892B8DBD08958ABD8BB585
:10013000892B8BBD089588BD89B5892B89BD08950C
:100140002CB530E04DB5942F80E0282B392BC90118
:10015000089585B5806485BD85B5886085BD85B504
:100160008F7E85BD85B5806285BD80EC83BD85B5FC
:10017000887F85BD85B5856085BD089584BD08955A
:1001800083BD089583BD0895089584B5089564508E
:10019000683010F083E00895009711F482E008952C
:1001A000E62FF0E0EE0FFF1FE05AFF4F91838083B0
:1001B00080E008951F920F920FB60F9211242F9393
:1001C0003F934F935F936F937F938F939F93AF93DF
:1001D000BF93EF93FF93E0916E00F0916F00309723
:1001E00009F00995FF91EF91BF91AF919F918F9188
:1001F0007F916F915F914F913F912F910F900FBE23
:100200000F901F9018951F920F920FB60F92112406
:100210002F933F934F935F936F937F938F939F930E
:10022000AF93BF93EF93FF93E0916C00F0916D005B
:10023000309709F00995FF91EF91BF91AF919F9190
:100240008F917F916F915F914F913F912F910F907F
:100250000FBE0F901F9018951F920F920FB60F921E
:1002600011242F933F934F935F936F937F938F93BB
:100270009F93AF93BF93EF93FF93E0916A00F09148
:100280006B00309709F00995FF91EF91BF91AF9105
:100290009F918F917F916F915F914F913F912F919E
:1002A0000F900FBE0F901F9018951F920F920FB6D0
:1002B0000F9211242F933F934F935F936F937F93EC
:1002C0008F939F93AF93BF93EF93FF93E091680059
:1002D000F0916900309709F00995FF91EF91BF9176
:1002E000AF919F918F917F916F915F914F913F91CE
:1002F0002F910F900FBE0F901F9018951F920F9285
:100300000FB60F9211242F933F934F935F936F93E8
:100310007F938F939F93AF93BF93EF93FF93E0915E
:100320006600F0916700309709F00995FF91EF9111
:10033000BF91AF919F918F917F916F915F914F91FD
:100340003F912F910F900FBE0F901F9018951F9205
:100350000F920FB60F9211242F933F934F935F93F9
:100360006F937F938F939F93AF93BF93EF93FF937D
:10037000E0916400F0916500309709F00995FF91D4
:10038000EF91BF91AF919F918F917F916F915F910D
:100390004F913F912F910F900FBE0F901F90189586
:1003A0001F920F920FB60F9211242F933F934F93EA
:1003B0005F936F937F938F939F93AF93BF93EF93CD
:1003C000FF93E0916200F0916300309709F0099586
:1003D000FF91EF91BF91AF919F918F917F916F911D
:1003E0005F914F913F912F910F900FBE0F901F90F3
:1003F00018951F920F920FB60F9211242F933F93CF
:100400004F935F936F937F938F939F93AF93BF931C
:10041000EF93FF93E0916000F0916100309709F055
:100420000995FF91EF91BF91AF919F918F917F912E
:100430006F915F914F913F912F910F900FBE0F9051
:100440001F9018958FB780688FBF08958FB78F77EB
:100450008FBF08958BB780648BBF85B7826085BFDF
:1004600085B7816085BF8BB780688BBF85B7886093
:1004700085BF85B7846085BF8BB780628BBF84B72B
:100480008F7B84BF08958130A1F0813060F082308D
:1004900021F0833029F081E0089585B78D7F05C074
:1004A00085B78D7F08C085B7826085BF85B78E7F91
:1004B00005C085B7826085BF85B7816085BF8BB772
:1004C00080648BBF80E008958130A1F0813060F0BE
:1004D000823021F0833029F081E0089585B7877F4D
:1004E00005C085B7877F08C085B7886085BF85B799
:1004F0008B7F05C085B7886085BF85B7846085BF61
:100500008BB780688BBF80E00895882321F081300D
:1005100029F081E0089584B78F7B02C084B780649E
:1005200084BF8BB780628BBF80E00895009711F481
:1005300081E00895909375008093740080E00895A1
:100540001F920F920FB60F9211242F933F934F9348
:100550005F936F937F938F939F93AF93BF93EF932B
:10056000FF93E0917400F0917500309709F00995C0
:10057000FF91EF91BF91AF919F918F917F916F917B
:100580005F914F913F912F910F900FBE0F901F9051
:100590001895009711F481E008959093730080936B
:1005A000720080E008951F920F920FB60F921124EF
:1005B0002F933F934F935F936F937F938F939F936B
:1005C000AF93BF93EF93FF93E0917200F0917300AC
:1005D000309709F00995FF91EF91BF91AF919F91ED
:1005E0008F917F916F915F914F913F912F910F90DC
:1005F0000FBE0F901F901895009711F481E0089599
:10060000909371008093700080E008951F920F9284
:100610000FB60F9211242F933F934F935F936F93D5
:100620007F938F939F93AF93BF93EF93FF93E0914B
:100630007000F0917100309709F00995FF91EF91EA
:10064000BF91AF919F918F917F916F915F914F91EA
:100650003F912F910F900FBE0F901F90189544233C
:10066000D1F58130A1F0813030F08230E1F083307B
:1006700009F067C024C02AB381E090E002C0880F6F
:10068000991F6A95E2F7809582238ABB089527B364
:1006900081E090E002C0880F991F6A95E2F780958B
:1006A000822387BB089524B381E090E002C0880FC5
:1006B000991F6A95E2F78095822384BB089521B340
:1006C00081E090E002C0880F991F6A95E2F780955B
:1006D000822381BB08954130A1F5813091F08130B2
:1006E00028F08230C9F0833061F521C02AB381E05F
:1006F00090E002C0880F991F6A95E2F7282B2ABB69
:10070000089527B381E090E002C0880F991F6A9591
:10071000E2F7282B27BB089524B381E090E002C0C4
:10072000880F991F6A95E2F7282B24BB089521B3FF
:1007300081E090E002C0880F991F6A95E2F7282BAC
:1007400021BB08954423D1F58130A1F0813030F0F0
:100750008230E1F0833009F067C024C02BB381E020
:1007600090E002C0880F991F6A95E2F78095822376
:100770008BBB089528B381E090E002C0880F991FD9
:100780006A95E2F78095822388BB089525B381E0BE
:1007900090E002C0880F991F6A95E2F78095822346
:1007A00085BB089522B381E090E002C0880F991FB5
:1007B0006A95E2F78095822382BB08954130A1F5C6
:1007C000813091F0813028F08230C9F0833061F5BA
:1007D00021C02BB381E090E002C0880F991F6A9579
:1007E000E2F7282B2BBB089528B381E090E002C0EC
:1007F000880F991F6A95E2F7282B28BB089525B327
:1008000081E090E002C0880F991F6A95E2F7282BDB
:1008100025BB089522B381E090E002C0880F991FA4
:100820006A95E2F7282B22BB0895FA01813049F03E
:10083000813028F0823039F08330C1F40EC089B3A2
:1008400003C086B301C083B390E002C0959587953D
:100850006A95E2F781708083089580B390E002C0CA
:10086000959587956A95E2F7817080830895613048
:10087000A9F4813051F0813028F0823049F0833082
:10088000F9F409C08FEF8ABB08958FEF87BB0895F5
:100890008FEF84BB08958FEF81BB0895662381F4A9
:1008A000813049F0813028F0823039F0833041F4D2
:1008B00006C01ABA089517BA089514BA089511BA5D
:1008C0000895813049F0813028F0823039F083304A
:1008D00041F406C06BBB089568BB089565BB0895DD
:1008E00062BB0895FB01813049F0813028F08230ED
:1008F00039F0833051F407C08BB303C088B301C013
:1009000085B38083089582B380830895089580918C
:100910007900882351F580917A008F5F80937A0067
:100920008A3739F410927A00809176008F5F809335
:100930007600809176008C3339F4809177008F5F58
:100940008093770010927600809177008C3339F491
:10095000809178008F5F809378001092770080916B
:100960007800883111F41092780008951092760082
:10097000109277001092780010927A00109279000D
:10098000089510927900089581E080937900089588
:10099000CF93DF930E9422020E942A0286EB94E00A
:1009A0000E94960284EC94E00E94C90281EC94E0DB
:1009B0000E94FC020E943E0087E894E06BE00E94E7
:1009C000C70080E060E041E00E942F0380E061E02A
:1009D00041E00E942F0380E062E041E00E942F038B
:1009E00080E063E041E00E942F0380E064E041E0AA
:1009F0000E942F0380E065E041E00E942F0382E027
:100A000060E041E00E942F0382E061E041E00E944B
:100A10002F0382E062E041E00E942F0382E063E066
:100A200041E00E942F0383E062E040E00E942F0338
:100A300083E063E040E00E942F0381E062E040E059
:100A40000E942F03C0EDD7E080E060E041E00E940B
:100A5000A20380E061E040E00E94A20380E062E047
:100A600040E00E94A20380E063E040E00E94A20315
:100A700080E064E040E00E94A20380E065E040E0A6
:100A80000E94A203809176006AE00E94260682E01E
:100A9000692F0E946104CE010197F1F780E060E0C8
:100AA00040E00E94A20380E061E041E00E94A203D6
:100AB00080E062E040E00E94A20380E063E040E06A
:100AC0000E94A20380E064E040E00E94A20380E074
:100AD00065E040E00E94A203809176006AE00E94F7
:100AE0002606682F82E00E946104CE010197F1F78B
:100AF00080E060E040E00E94A20380E061E040E02E
:100B00000E94A20380E062E041E00E94A20380E034
:100B100063E040E00E94A20380E064E040E00E94C5
:100B2000A20380E065E040E00E94A203809177008C
:100B30006AE00E94260682E0692F0E946104CE01CD
:100B40000197F1F780E060E040E00E94A20380E0BE
:100B500061E040E00E94A20380E062E040E00E9489
:100B6000A20380E063E041E00E94A20380E064E031
:100B700040E00E94A20380E065E040E00E94A20302
:100B8000809177006AE00E942606682F82E00E942A
:100B90006104CE010197F1F780E060E040E00E943F
:100BA000A20380E061E040E00E94A20380E062E0F6
:100BB00040E00E94A20380E063E040E00E94A203C4
:100BC00080E064E041E00E94A20380E065E040E054
:100BD0000E94A203809178006AE00E94260682E0CB
:100BE000692F0E946104CE010197F1F780E060E077
:100BF00040E00E94A20380E061E040E00E94A20386
:100C000080E062E040E00E94A20380E063E040E018
:100C10000E94A20380E064E040E00E94A20380E022
:100C200065E041E00E94A203809178006AE00E94A2
:100C30002606682F82E00E946104CE010197F1F739
:100C400080E065E040E00E94A203FECE991B79E0BF
:100C500004C0991F961708F0961B881F7A95C9F74C
:080C600080950895F894FFCF80
:00000001FF
